:020000040800F2
:1000000008BB0020A13E0008E5040008E704000842
:10001000EB040008EF040008F304000800000000EF
:10002000000000000000000000000000F7040008CD
:10003000F904000800000000FB040008FD040008AB
:10004000BB3E0008BB3E0008BB3E0008BB3E0008AC
:10005000BB3E0008BB3E0008B91A0008BB3E0008C2
:10006000BB3E0008BB3E0008BB3E0008BB3E00088C
:10007000BB3E0008BB3E0008BB3E0008BB3E00087C
:10008000BB3E0008BB3E0008BB3E0008BB3E00086C
:10009000BB3E0008BB3E0008BB3E0008BB3E00085C
:1000A000BB3E0008BB3E0008BB3E0008BB3E00084C
:1000B000BB3E000897150008BB3E0008BB3E000889
:1000C000BB3E0008BB3E0008BB3E0008BB3E00082C
:1000D000BB3E0008173E0008BB3E0008C9150008DB
:1000E000BB3E0008BB3E0008BB3E0008BB3E00080C
:1000F000BB3E0008BB3E0008BB3E0008BB3E0008FC
:10010000BB3E0008BB3E0008BB3E0008BB3E0008EB
:10011000BB3E0008BB3E0008BB3E0008C1140008FF
:10012000BB3E0008BB3E0008BB3E0008BB3E0008CB
:10013000DFF80CD005F0BAFF004800474501000881
:1001400008BB002008B503F0A1FD4FF4A06003F048
:10015000B9FE01F047FC4FF4E13003F010FE4FF41C
:10016000E13001F060FA01F0EFFA03F0EBFC41F648
:100170001F4142F20F7001F0E5F903F07AFB002213
:1001800011460A2003F072FC012200211C2003F01A
:100190006DFC022200212E2003F068FC03220021C6
:1001A000402003F063FC04220021522003F05EFC97
:1001B00005220021642003F059FC1023BDA2042174
:1001C0000A2003F030FC0C2204212E2003F04EFC08
:1001D0000D220421402003F049FC0E22042152206C
:1001E00003F044FC0F220421642003F03FFC00F0E4
:1001F000BBFA03F03EFB002211460A2003F036FC56
:10020000012200211C2003F031FC022200212E20BB
:1002100003F02CFC03220021402003F027FC0422E1
:100220000021522003F022FC05220021642003F06B
:100230001DFC0C2204210A2003F018FC0D220421CD
:100240001C2003F013FC0E2204212E2003F00EFCD0
:1002500010220421402003F009FC11220421522025
:1002600003F004FC40F6B83003F04DFD03F001FB51
:10027000002211460A2003F0F9FB012200211C2074
:1002800003F0F4FB022200212E2003F0EFFB0322F7
:100290000021402003F0EAFB04220021522003F059
:1002A000E5FB05220021642003F0E0FB122204217B
:1002B0000A2003F0DBFB132204211C2003F0D6FBF1
:1002C000142204212E2003F0D1FB1522042140200A
:1002D00003F0CCFB0F220421522003F0C7FB00F0F7
:1002E000E6FBC82003F00FFD00F0C3FD03F0C1FAE8
:1002F000002211460A2003F0B9FB012200211C2034
:1003000003F0B4FB022200212E2003F0AFFB0322F6
:100310000021402003F0AAFB04220021522003F018
:10032000A5FB05220021642003F0A0FB122204217A
:100330000A2003F09BFB132204211C2003F096FBF0
:10034000102204212E2003F091FB112204214020D1
:1003500003F08CFB40F6B83003F0D5FC03F089FACB
:100360005648007956490860544840795549086014
:1003700052488079544908600121544804F0C4FF70
:1003800097E053480078012815D100F090FBC82071
:1003900003F0B9FC00F06DFD00204D49087047489E
:1003A0000079474908604548407946490860434814
:1003B000807945490860444800683C2807DB0020F4
:1003C000414908603F480068401C3E4908603D487C
:1003D00000683C2807DB00203A490860384800687C
:1003E000401C3749086036480068182802DB0020A6
:1003F00033490860102337A20021084603F013FB9D
:100400001020022300902E48002102683F2003F0B4
:10041000C6FA102331A200214F2003F004FB102064
:1004200002230090274800210268572003F0B7FA02
:1004300010232AA20021672003F0F5FA10200223DE
:1004400000902148002102686F2003F0A8FA0222E0
:100450000321002003F00AFB03221146122003F0BF
:1004600005FB10231DA20321282003F0DCFA102332
:100470001B4A03213C2003F0D6FA09220621002062
:1004800003F0F4FA0A220621122003F0EFFA1023F7
:1004900012A20621282003F0C6FA1023104A403287
:1004A00006213C2003F0BFFA0B220621502003F066
:1004B000DDFA66E777696669000000002400002025
:1004C00004000020080000200C0000200004004070
:1004D00000000020495F436F6C6F72003A0000001B
:1004E000EC060020704700BFFEE700BFFEE700BF3C
:1004F000FEE700BFFEE77047704770477047000097
:100500000CB50020019000906C48006840F48030E9
:100510006A49086000BF6948006800F40030009034
:100520000198401C0190009818B90198B0F5A06F8F
:10053000F1D16248006800F4003010B10120009051
:1005400001E0002000900098012843D15C48006839
:1005500040F010005A4908600846006820F0030087
:1005600008600846006840F0020008605348406890
:10057000524948600846406848600846406840F470
:10058000806048600846406820F47C104860084657
:10059000406840F4E81048600846006840F0807009
:1005A000086000BF4548006800F000700028F9D0DE
:1005B0004248406820F003004049486008464068CF
:1005C00040F00200486000BF3C48406800F00C006A
:1005D0000828F9D10CBD10B5FFF792FF10BD10B57A
:1005E0003648006840F00100344908600846406819
:1005F000344908403149486008460068324908409B
:100600002E4908600846006820F4802008600846EB
:10061000406820F4FE0048604FF41F008860FFF738
:10062000DAFF4FF000602949086010BD10B50021C5
:1006300000200022214B5B6803F00C0121B104294A
:1006400006D0082928D107E0214B224C236027E05F
:100650001F4B204C236023E0184B5B6803F47010A1
:10066000164B5B6803F48032022303EB904022B9FF
:10067000194B4343174C23600DE0104B5B6803F4A8
:10068000003323B1144B4343124C236003E0104B5F
:100690004343104C236003E00D4B0E4C236000BF1E
:1006A00000BF064B5B68C3F303130C4CE15C094BC2
:1006B0001B68CB40074C236010BD000000100240B7
:1006C000002002400000FFF8FFFFF6FE08ED00E00A
:1006D00000127A001000002000093D0014000020E4
:1006E00070B504460025FA48008800F4004058B16F
:1006F0000020F7490988C1F30E01F64A50542146FB
:10070000104605F097F90546284670BD2DE9F041E1
:1007100006460D46144600270020ED490880314664
:10072000EDA000F0E0FFE5B1DCB113E00A2003F03A
:10073000EAFAE748008800F4004058B12846FFF77D
:10074000CFFF20B12946E6A005F03EFD06E00020DF
:10075000DF490880601E80B2041EE7D100BF04B9E3
:1007600001273846BDE8F08110B53221002001F0A4
:10077000DEF80446DEA005F027FD00BF1422DFA14D
:10078000DFA0FFF7C3FF0028F8D1DEA005F01CFDB5
:100790003222DAA1E0A0FFF7B9FFE2A005F014FDD4
:1007A0001422D6A1E3A0FFF7B1FF4FF47A7003F053
:1007B000AAFA4FF47A7003F0A6FA4FF47A7003F0B5
:1007C000A2FADEA005F000FD1422CCA1E0A0FFF704
:1007D0009DFFE2480368E248E2A10268204605F076
:1007E00003FDDE480268DE480168E3A005F0ECFC8A
:1007F00000BF4FF49672E7A12046FFF787FF00285D
:10080000F7D1214601F083F810BD10B500BFE448D0
:10081000008800F040000028F9D02B20E049091D95
:1008200008800F2003F06FFA00BFDD48008800F059
:1008300040000028F9D02B20D949091D08800F203D
:1008400003F061FA00BFD648008800F0400000289D
:10085000F9D02B20D249091D08804FF4FA7003F01B
:1008600052FA1422A5A1A6A0FFF750FF10BD2DE952
:10087000F84F80460D46404602F020F807464FB933
:1008800001F0B8F983465946C6A005F09DFC012049
:10089000BDE8F88FC9A1384602F016FC81464846EB
:1008A00002F000FC0090C7A0009905F08DFC00212B
:1008B000484602F000FCB0F1000A7DD0C9A15046C4
:1008C00002F002FC061E78D0C94805F07DFCC9A1E3
:1008D000304602F0F9FB041E0ED0C7A0D4E9031382
:1008E000226A05F071FC206905F0C0F883465A467B
:1008F0002846216905F07AF8CFA1304602F0E4FBE2
:10090000041E0FD0BCA0D4E90313226A05F05CFCDE
:10091000206905F0ABF883465A4605F120002169AD
:1009200005F064F8C6A1304602F0CEFB041E0FD0DD
:10093000B1A0D4E90313226A05F046FC206905F052
:1009400095F883465A4605F14000216905F04EF8B6
:10095000BDA1304602F0B8FB041E0FD0A6A0D4E91A
:100960000313226A05F030FC206905F07FF8834606
:100970005A4605F16000216905F038F8B4A1304607
:1009800002F0A2FB041E0FD09BA0D4E90313226A3D
:1009900005F01AFC206905F069F883465A4605F10E
:1009A000A000216905F022F8ACA1304602F08CFBD2
:1009B000041E12D090A001E073E00EE0D4E903130E
:1009C000226A05F001FC206905F050F883465A467A
:1009D00005F1C000216905F009F8A4A1504602F014
:1009E00073FB061E44D0A24805F0EEFBA1A13046E1
:1009F00002F06AFB041E0FD07FA0D4E90313226A21
:100A000005F0E2FB206905F031F883465A4605F10E
:100A1000E000216904F0EAFF98A1304602F054FB9F
:100A2000041E0FD074A0D4E90313226A05F0CCFB96
:100A3000206905F01BF883465A4605F58070216948
:100A400004F0D4FF8FA1304602F03EFB041E0FD00D
:100A500069A0D4E90313226A05F0B6FB206905F00A
:100A600005F883465A4605F59070216904F0BEFFEB
:100A700087A1504602F028FB061E12D0874805F0D9
:100A8000A3FB5DA0D6E90313326A05F09DFB306934
:100A900004F0ECFF83465A4605F5A070216904F086
:100AA000A5FF00BF384601F007F90020F0E610B5B9
:100AB0002821002000F03BFF7949086079A37AA241
:100AC0007EA17748006805F08FFB76A276A103E14E
:100AD000380000208C07002025730D0A000000005C
:100AE000726563656976653A25730D0A000000003A
:100AF00073656E643A41540D0A0000004F4B0000CC
:100B00004154000073656E643A41542B43574D4F76
:100B100044453D310D0A000041542B43574D4F448D
:100B2000453D310073656E643A41542B5253540D68
:100B30000A00000041542B525354000073656E6448
:100B40003A41542B4349504D55583D300D0A000051
:100B500041542B4349504D55583D30003000002042
:100B60002C00002041542B43574A41503D2225730D
:100B7000222C22257322000073656E643A41542BA7
:100B800043574A41503D222573222C222573220DC2
:100B90000A0000005749464920474F542049500059
:100BA000004800404572726F72206265666F726520
:100BB0003A205B25735D200D0A0000007265737595
:100BC0006C747300634A534F4E5F47657441727291
:100BD000617953697A653A2073697A653D256420A5
:100BE0000D0A00006C6F636174696F6E0000000095
:100BF0006080000869640000634A534F4E5F476598
:100C0000744F626A6563744974656D3A20747970D3
:100C1000653D25642C20737472696E6720697320AA
:100C200025732C76616C7565737472696E673D25EA
:100C300073200D0A000000006E616D650000000069
:100C4000636F756E747279007061746800000000E3
:100C500074696D657A6F6E650000000074696D657A
:100C60007A6F6E655F6F6666736574006E6F77008E
:100C7000B08000087465787400000000636F6465DC
:100C80000000000074656D706572617475726500B6
:100C90006C6173745F757064617465000081000835
:100CA00034000020383000006170692E73656E6971
:100CB00076657273652E636F6D00000041542B439F
:100CC000495053544152543D22544350222C222522
:100CD00073222C2573000000F0A005F075FAC822DD
:100CE000AFF2E811F6480068FFF710FD0446012C4A
:100CF00006D1F3480168002000F009FE012010BD74
:100D00004FF4967002F0FFFFEEA005F05DFA64224A
:100D1000AFF21821F0A0FFF7F9FC0020F24908809B
:100D2000F2A005F051FA6422AFF23021F4A0FFF7EF
:100D3000EDFCF6A005F048FAF94800F0D4FC1420C8
:100D400002F0E1FF0020E84908804FF47A7002F0D9
:100D5000DAFFE548008800F4004030B10020E249A5
:100D60000988C1F30E01EF4A5054EE49EEA005F098
:100D70002BFAF249EB48FFF77AFDF1A005F024FACF
:100D8000EE49E031F5A005F01FFAF649F3A005F0B1
:100D90001BFAFFF73AFDF4A005F016FA3222AFF283
:100DA000A421F6A0FFF7B2FCC5480168002000F0BE
:100DB000AEFD0020A3E70146CA1701EB9272921024
:100DC000A1EB820292B9642091FBF0F200FB1210B9
:100DD00050B94FF4C87091FBF0F200FB121008B943
:100DE000012070470020FCE70120FAE70020F8E727
:100DF0002DE9F04704460E4691469A46DDE908780B
:100E0000002540F2B270844203DB40F63300844296
:100E100002DD0120BDE8F08740F2B2730AE0184617
:100E2000FFF7C9FF10B1D848054401E0D748054491
:100E3000581C83B2A342F2DB701EC6B2002310E03E
:100E4000D348C05C40F2A321484305EBC0152046BF
:100E5000FFF7B1FF18B1012B01D1CE480544581C52
:100E600083B2B342ECDB00BF00BF00BF00BF002075
:100E7000D0E72DE9FC412821002000F058FD044670
:100E80000A21002000F053FD06462821002000F032
:100E90004EFD0546AFF2F413BFA2AFF2E0112046BB
:100EA00005F0A2F92146C2A005F08EF9C822AFF2E2
:100EB000B4312046FFF72AFC0746012F06D1214610
:100EC000002000F024FD0120BDE8FC814FF4967065
:100ED00002F019FF6422AFF2DC317FA0FFF716FCAD
:100EE0006422AFF2E83186A0FFF710FC87A005F07E
:100EF0006BF9B0A000F0F7FB142002F004FF002013
:100F0000794908804FF47A7002F0FDFE7648008837
:100F100000F4004030B1002073490988C1F30E018C
:100F2000804A50547F4980A005F04EF96E480088F1
:100F300000F40040002878D0ABA600206A49098858
:100F4000C1F30A01774A50541146A9A005F03CF9B3
:100F50003146744804F06EFD002867D0A9A63146DA
:100F6000704804F067FD0546A5F109042146A6A0D6
:100F700005F02AF90C3C607B3038217B303901EBDD
:100F8000810100EB41000830182190FBF1F201FBD8
:100F90001200A2490871207C3038E17B303901EB26
:100FA000810100EB41003C2190FBF1F201FB1200BA
:100FB0009A494871E07C3038A17C303901EB8101DD
:100FC00000EB41003C2190FBF1F201FB1200934940
:100FD0008871E07930384FF47A714843217A30399A
:100FE00001EBC10202EB011100EB8101607A3038A4
:100FF00000EB800001EB4001A07A303808448749BB
:1010000008806078303814F80C1B303901EB81010E
:1010100000EB41008149C87081A1424804F00AFDFB
:1010200028B101207D49887034E173E168E17DA138
:101030003C4804F0FFFC18B102207849887029E18F
:1010400079A1384804F0F6FC18B103207349887080
:1010500020E176A1334804F0EDFC18B104206F497B
:10106000887017E172A12F4804F0E4FC18B1052044
:101070006A4988700EE16FA12A4804F0DBFC18B1C0
:1010800006206649887005E16BA1264804F0D2FC71
:1010900018B1072061498870FCE0CFE073656E6489
:1010A0003A41542B43495053544152543D225443E6
:1010B00050222C222573222C25730D0A00000000DB
:1010C0003400002073656E643A41542B4349504DFF
:1010D0004F44453D310D0A0041542B4349504D4F7B
:1010E00044453D31000000003800002073656E6407
:1010F0003A41542B43495053454E440D0A000000D9
:1011000041542B43495053454E440000737461725F
:1011100074207472616E732E2E2E0D0A0000000072
:10112000F07F00088C0700205553415254335F5222
:10113000585F4255463D25730D0A00000C060020FD
:10114000B4F2D3A1BDE1B9B9CCE5C4DAC4DAC8DDE3
:10115000C8E7CFC2A3BA200D0A0000002573200DF6
:101160000A0000002C07002073656E643A41542B7E
:10117000434950434C4F53450D0A000041542B4303
:101180004950434C4F5345000085E2018033E10153
:101190001C770008805101007777772E6265696AB5
:1011A000696E672D74696D652E6F726700000000AF
:1011B00025730000474554202F74696D6531352E25
:1011C00061737020485454502F312E31486F73741E
:1011D0003A7777772E6265696A696E672D74696DF3
:1011E000652E6F72670A0A00446174650000000092
:1011F0006765745F74696D5F737274A3BA25730D4C
:101200000A000000474D54006765745F6E65745FA7
:101210007374722025730D0A000000002400002062
:101220004A616E00466562004D6172004170720055
:101230004D6179004A756E004A756C0071A1724863
:1012400004F0F8FB18B108207049887022E070A102
:101250006D4804F0EFFB18B109206C49887019E063
:101260006CA1694804F0E6FB18B10A206749887050
:1012700010E069A1644804F0DDFB18B10B2063495C
:10128000887007E065A1604804F0D4FB10B10C2021
:101290005E4988705D48018861A004F095FF5B4855
:1012A000817863A004F090FF5848C17865A004F0ED
:1012B0008BFF5648017967A004F086FF53484179B7
:1012C00068A004F081FF514881796AA004F07CFF96
:1012D00000206C4908806CA004F076FF4B488079B0
:1012E0004A494979DFF824C1CDE900109CF804305F
:1012F0009CF803209CF80210BCF80000FFF778FD72
:10130000002060490880314600F001FB294600209A
:1013100000F0FDFA61A004F057FFFFF776FA3222E1
:10132000AFF62801AFF2AC10FFF7F0F9214600202C
:1013300000F0EDFA0020C7E570B5044600255148DD
:10134000008800F4004058B100204E490988C1F3DC
:101350000E012D4A50542146104604F06BFB054601
:10136000284670BD70B505463222AFF670014DA01B
:10137000FFF7CCF910B10020287070BD4CA0FFF72A
:10138000DBFF04464AA1601C04F054FB0646002023
:101390003070621CAFF2E811284604F025FF00BF50
:1013A000EBE72DE9F04106460C46154600270020E4
:1013B000344908803146AFF2003000F094F9ECB1C6
:1013C000E5B114E00A2002F09EFC2E48008800F4EB
:1013D000004060B12046FFF7AFFF28B122463146FA
:1013E00034A004F0F1FE06E0002026490880681EC3
:1013F00080B2051EE6D100BF05B901273846BDE819
:10140000F0810000417567008C0700202400002057
:10141000536570004F6374004E6F7600446563003F
:101420006E77742E79656172203D2025640D0A0067
:101430006E77742E6D6F6E7468203D2025640D0AE2
:10144000000000006E77742E64617465203D2025D5
:10145000640D0A006E77742E686F7572203D20252A
:10146000640D0A006E77742E6D696E203D20256430
:101470000D0A00006E77742E736563203D2025648D
:101480000D0A0000380000207564646174653A6ECE
:10149000657474696D652121210000000D0A0D0A33
:1014A0000000000041542B43494653520000000005
:1014B0002200000025732061636B3A25730D0A003A
:1014C00010B501213C4804F0E8F968B13B480088B8
:1014D00040F40040394908800121374804F0EEF912
:1014E0000021354803F010FF10BD7FB505460C46BE
:1014F0000121202003F07DF8ADF80450ADF8004044
:101500000020ADF80600ADF8020069462A4803F055
:101510009FFB01221146284803F011FF01212648B4
:1015200003F0F2FE37208DF80C0000208DF80D003E
:1015300002208DF80E0001208DF80F0003A802F0A4
:10154000C6FC7FBD7FB505460C460121022003F095
:1015500050F8ADF80850ADF804400020ADF80A008E
:10156000ADF8060001A9164803F072FB01221146EE
:10157000134803F0E4FE1D208DF8000000208DF8D4
:10158000010003208DF8020001208DF80300684659
:1015900002F09DFC7FBD10B50121094804F07DF9E2
:1015A00040B108480068401C064908600121044811
:1015B00004F084F910BD0000001400403800002041
:1015C000000400400C00002010B540F2255158489E
:1015D00003F026FAF8B1564803F0A2F9C4B2554810
:1015E000008800F40040B0B952480088B0F5167F7A
:1015F00012DA0021504804F01BF94E48008818B94F
:1016000001214D4803F080FE4A490888411C494A9F
:1016100011804A490C5405E04648008840F40040D7
:101620004449088010BD10B586B004460121082049
:1016300002F0D2FF0121880402F0DBFF3C4803F0F6
:101640002FF84FF48060ADF8100003208DF81200E1
:1016500018208DF8130004A9394802F001FD4FF459
:101660000060ADF8100004208DF8130004A9344880
:1016700002F0F6FC00940020ADF80400ADF806007E
:10168000ADF80800ADF80C000C20ADF80A00694672
:10169000274803F048F80121254803F0D0F801223B
:1016A00040F22551224803F0D6F827208DF8140087
:1016B00002208DF8150003208DF8160001208DF80A
:1016C000170005A802F003FC41F61F4140F2E73085
:1016D000FFF70BFF0020174908800021164803F090
:1016E00013FE06B010BD0FB438B505A8009015481C
:1016F000009A049904F08CFD00200090114804F039
:10170000B5F985B200240DE000BF4021084803F080
:1017100071F90028F9D00B48015D054803F0FCF889
:10172000601C84B2AC42EFDB38BC5DF814FB0000F7
:101730000048004038000020001400408C070020C2
:10174000000C0140E409002008B50121202002F02E
:1017500043FF10208DF803000420ADF800000320A3
:101760008DF802006946044802F07AFC0421024820
:1017700002F025FD08BD00000014014070B50346CD
:101780000C4603E014F8015B03F8015B151EA2F19F
:101790000102F7D170BD30B5034601E003F8011B2B
:1017A000141EA2F10102F9D130BD10B504468949D9
:1017B00051F824104A00884951F824000021FFF70D
:1017C000EAFF864951F824208349083951F824005A
:1017D0000021FFF7E0FF01217F480830015510BDCF
:1017E00010B501460023002207E07B4850F8210095
:1017F00030F8120000B15B1C521C764850F82100F2
:101800009042F2D864205843724C54F82140B0FB07
:10181000F4F0C0B210BD2DE9F04704460F46002594
:10182000A9466D480830005D20B96B481038016842
:10183000204688471FB94FF0FF30BDE8F087684861
:1018400050F82400B7FBF0F6654850F82400B7FBC9
:10185000F0F100FB117000B1761C5E4850F82400D6
:10186000451E20E05C4850F8240030F8150010B9FF
:1018700009F1010901E04FF00009B14512D14FF023
:10188000000808E0544850F8240005EB080220F84E
:10189000126008F10108B045F4D3514850F8240013
:1018A0006843CAE76D1E002DDCDA4FF0FF30C4E755
:1018B0002DE9F04104460E4647480830005D38B92E
:1018C000454810380168204688470120BDE8F0816E
:1018D000424850F82400B04217D9414850F824003B
:1018E000B6FBF0F13C4850F8240030F811200025F8
:1018F00007E00023384850F824004F1920F817302B
:101900006D1C9542F5DB0020E0E70220DEE770B5B4
:1019100005460C4604B970BD2F48083850F825001C
:10192000261A31462846FFF7C3FF00BFF3E770B51C
:1019300004460E4631462046FFF76DFF0546681CFB
:1019400008B9002070BD2448083850F82400284405
:10195000F8E72DE9F04104460F4616463146204689
:10196000FFF759FF0546681C10B90020BDE8F0815B
:101970001949083951F82410481932463946FFF7F9
:10198000FDFE39462046FFF7C2FF1348083850F8DD
:1019900024002844EAE770B5044621460020FFF7FA
:1019A0003AFF0546681C08B9002070BD0A48103887
:1019B00080682844F9E770B5044604B970BD06484C
:1019C00010388068251A29460020FFF771FF00BFF4
:1019D000F4E70000287700084C0000203877000862
:1019E000307700080EB50121084602F0F5FD00F041
:1019F00083F80521022002F049FC202001900020FC
:101A00008DF808000C208DF8090001208DF80A00DF
:101A100001A803F065FF0F21002002F037FC4FF40E
:101A20000040019000208DF808000C208DF809007E
:101A300001208DF80A0001A803F052FF002108469A
:101A400002F024FC0120019000208DF808000820FD
:101A50008DF8090001208DF80A0001A803F040FF6D
:101A600006208DF8000002208DF801008DF802009C
:101A700001208DF80300684602F029FA17208DF83E
:101A8000000002208DF8010001208DF802008DF881
:101A90000300684602F01BFA28208DF8000002209F
:101AA0008DF8010000208DF8020001208DF8030060
:101AB000684602F00CFA0EBD10B5642002F023F95E
:101AC00001210A4802F05FFB01280AD1084800689A
:101AD00008B9012000E000200549086001200549FF
:101AE0000870012003F073FF10BD000000080140E2
:101AF000888122420000002008B50121142002F054
:101B00006BFD0121374802F07CFB4FF40040ADF83B
:101B1000000048208DF803006946334802F0A0FA1F
:101B20002020ADF8000048208DF8030069462F48BA
:101B300002F096FA0120ADF8000028208DF803008D
:101B40006946294802F08CFA08BD10B5044614B164
:101B50000120274908702648007868B320212348CF
:101B600002F011FB58B14FF400411F4802F00BFB8B
:101B700028B101211C4802F006FB01281CD10A20D3
:101B800002F0C1F800201A4908702021174802F01D
:101B9000FAFA08B9012010BD4FF40041124802F0D2
:101BA000F2FA08B90220F6E701210F4802F0EBFA39
:101BB000012815D10320EEE720210C4802F0E3FABA
:101BC00001280DD1C103084802F0DDFA012807D130
:101BD0000121054802F0D7FA10B901200449087024
:101BE0000020D8E70002300000080140001001404A
:101BF00058000020FE480068704770B504460D4646
:101C00002CB9AC4201D0012070BD0020FCE70DB919
:101C10000120F9E705E0207808B90020F4E7641C0A
:101C20006D1C207803F0DCFE0646287803F0D8FE11
:101C30008642F0D0207803F0D3FE0646287803F0E1
:101C4000CFFE301AE0E770B50446204603F00EFFE1
:101C5000451C2846E74909688847061E00D170BD23
:101C60002A462146304603F0C1FE3046F7E730B938
:101C7000E149E04A1160E149E14A116070470168B9
:101C800009B1016800E0DC49DA4A1160416809B134
:101C9000416800E0D949DA4A116000BFEEE710B5AB
:101CA0002820D4490968884704461CB128212046C9
:101CB00003F0B5FE204610BD70B5044622E025684D
:101CC000A08900F4807020B9A06810B1A068FFF767
:101CD000F3FFA08900F4807028B9206918B1C849C1
:101CE000206909688847A08900F4007028B9206A33
:101CF00018B1C349206A096888472046C049096865
:101D000088472C46002CDAD170BD2DE9F04F8BB0FE
:101D100083468A460020044605460026B94F002126
:101D2000884689460990012008909AF800002D28DD
:101D300002D1B54F0AF1010A9AF80000302801D10A
:101D40000AF1010A9AF80000312822DB9AF8000013
:101D500039281EDC00BF1AF8011BA1F1300003F086
:101D6000BDFF0022A94BCDE906012046294603F01C
:101D700043FFCDE90401DDE9062303F096FE0446A6
:101D80000D469AF80000302803DB9AF80000392845
:101D9000E1DD9AF800002E2830D19AF801003028B1
:101DA0002CDB9AF80100392828DC0AF1010A00BF6F
:101DB0001AF8011BA1F1300003F090FF0022934BB1
:101DC000CDE906012046294603F016FFCDE90401BE
:101DD000DDE9062303F069FE04460D460022894B27
:101DE0004046494603F002FF804689469AF80000C3
:101DF000302803DB9AF800003928D9DD9AF8000072
:101E0000652803D09AF80000452823D10AF1010A79
:101E10009AF800002B2802D10AF1010A08E09AF88A
:101E200000002D2804D14FF0FF3008900AF1010A7C
:101E300008E01AF8010B3038099901EB810100EB39
:101E4000410009909AF80000302803DB9AF800005E
:101E50003928EEDDDDE9082101FB02F003F03EFF49
:101E600042464B46CDE9000103F01FFE02460B46F9
:101E7000CDE902010020654904F038FF22462B46D7
:101E8000CDE906013046394603F0B6FECDE904013E
:101E9000DDE9062303F0B0FE04460D46CBE9064516
:101EA0002046294603F02BFFCBF814000320CBF883
:101EB0000C0050460BB0BDE8F08F0146491E41EAC8
:101EC000610141EAA10141EA211141EA212141EAEE
:101ED0002141481C70472DE9F04104460E460CB1E3
:101EE000206810B90020BDE8F081A0680644606851
:101EF000B04203DBA16820680844F4E73046FFF7EE
:101F0000DCFF074638463B490968884705463DB926
:101F10003B49206809688847002060602060E2E74C
:101F200025B12846D4E9001203F060FD3449206849
:101F30000968884767602560A0682844D3E770B5C2
:101F400004460CB1206808B9002070BDA168206863
:101F50004518284603F08AFDA1680844F5E72DE9F5
:101F6000FC4782460E464FF00009DAE9064500229A
:101F700013462046294603F0F5FE13D12EB1022167
:101F80003046FFF7A8FF814604E00220194909689E
:101F900088478146B9F1000F03D01DA00088A9F839
:101FA00000009FE0DAF8140003F098FE074622468E
:101FB0002B4603F01BFE21F000410022154BCDE91A
:101FC000000103F0CFFE3ED8134A144B20462946A9
:101FD00003F0C8FE37D80022114B2046294603F0F3
:101FE000D9FE30D806B315213046FFF774FF19E04B
:101FF0005C0000206000002097190008B719000855
:10200000640000200000F03F0000F0BF000024400A
:10201000300000000000B03C0000C0FFFFFFDF41C7
:102020000000E0C1814604E01520FA4909688847AC
:102030008146B9F1000F55D0F7A14846DAF81420CF
:1020400004F0D2F84EE02EB140213046FFF743FFB6
:10205000814604E04020EF49096888478146B9F18C
:10206000000F3FD02046294604F0D2FD0746224605
:102070002B4603F0BBFD21F000410022E74BCDE9E8
:10208000000103F06FFE0FD825F000412746E44A17
:10209000E44B384603F066FE06D222462B46E2A108
:1020A000484604F0A1F81DE025F000412746E04A2B
:1020B000E04B384603F056FE07D325F000410022DE
:1020C000DD4B384603F066FE06D222462B46DBA1E6
:1020D000484604F089F805E022462B46D8A1484638
:1020E00004F082F84846BDE8FC87014600220878E3
:1020F000302806DB0878392803DC087830380244B9
:1021000015E00878412806DB0878462803DC0878C3
:10211000373802440BE00878612806DB0878662827
:1021200003DC08785738024401E0002070471201B0
:10213000491C0878302806DB0878392803DC087841
:102140003038024415E00878412806DB0878462834
:1021500003DC0878373802440BE00878612806DB96
:102160000878662803DC08785738024401E000202C
:10217000DCE71201491C0878302806DB087839288A
:1021800003DC08783038024415E00878412806DB83
:102190000878462803DC0878373802440BE00878D2
:1021A000612806DB0878662803DC08785738024483
:1021B00001E00020BAE71201491C0878302806DB4C
:1021C0000878392803DC08783038024415E00878AC
:1021D000412806DB0878462803DC087837380244B3
:1021E0000BE00878612806DB0878662803DC0878AD
:1021F0005738024401E0002098E7104696E72DE9A1
:10220000F05F8346884608F10104002798F8000033
:10221000222805D08B48C0F800800020BDE8F09F40
:1022200004E014F8011B5C2900D1641C20782228EA
:1022300004D0207810B1781C071EF2D1781C7549A3
:10224000096888478146B9F1000F01D10020E5E710
:1022500008F101044D469EE020785C2804D014F873
:10226000010B05F8010B96E0641C2078722818D049
:1022700006DC622809D066280BD06E287ED10CE0DF
:10228000742812D07528F9D113E0082005F8010B45
:102290007FE00C2005F8010B7BE00A2005F8010B1C
:1022A00077E00D2005F8010B73E0092005F8010B1C
:1022B0006FE0601CFFF719FF0646241DB6F55C4F62
:1022C00002D3B6F5604F00D306B962E0B6F5584FB9
:1022D0001CD3B6F55C4F19D260785C2802D1A07887
:1022E000752800D055E0E01CFFF7FFFE8246A41DD4
:1022F000BAF55C4F02D3BAF5604F00D349E0C6F39C
:102300000901504661F39F2000F580360427802E96
:1023100001D2012708E0B6F5006F01D2022703E0E1
:10232000B6F5803F00D203273D44012F20D0022F75
:1023300015D0032F0AD0042F24D106F0BF0040F09F
:102340008001681E05460170B60900BF06F0BF0097
:1023500040F08001681E05460170B60900BF06F016
:10236000BF0040F08001681E05460170B60900BF3D
:102370003548C05D3043C1B2681E00E005E0054647
:10238000017000BF00BF3D4403E0207805F8010B59
:1023900000BF00BF641C2078222803D020780028CA
:1023A0007FF45AAF002028702078222800D1641CC6
:1023B000CBF810900420CBF80C0020462EE72DE936
:1023C000F05F804689460027BB46454611E02878E5
:1023D000002802DD2878202805DB2878222802D072
:1023E00028785C2801D1012000E0002040EA0B0B96
:1023F0006D1C28780028EAD1BBF1000F3ED1A5EB77
:102400000807B9F1000F21D0F91C4846FFF763FD1A
:10241000064620E060000020256400000000B03C7B
:1024200044F3C2E4E4E9634C252E3066000000006A
:102430008DEDB5A0F7C6B03E65CDCD412565000058
:10244000256600005C00002040770008F81CFD496C
:1024500009688847064616B90020BDE8F09F344653
:10246000222004F8010B4146204603F006FB2220FF
:10247000E0550021781C21543046EEE7B8F1000FFA
:1024800016D1B9F1000F05D003214846FFF723FD0F
:10249000064604E00320EB490968884706460EB962
:1024A0000020DAE7E8A1304603F0E7FA3046D4E747
:1024B00045460BE05146E5A003F0CEFA08B17F1C7B
:1024C00003E0BAF1200F00DA7F1D6D1C95F800A023
:1024D000BAF1000F02D0781C071EEBD1B9F1000F42
:1024E00005D0F91C4846FFF7F6FC064604E0F81C48
:1024F000D4490968884706460EB90020ADE734463E
:102500004546222004F8010B47E028781F280ADD01
:102510002878222807D028785C2804D015F8010BE9
:1025200004F8010B39E05C2004F8010B15F8011BDD
:102530008A460C2919D006DC082912D0092920D096
:102540000A2922D115E00D2917D0222905D05C29AE
:102550001BD15C2004F8010B1EE0222004F8010BC3
:102560001AE0622004F8010B16E0662004F8010B63
:1025700012E06E2004F8010B0EE0722004F8010B4B
:102580000AE0742004F8010B06E05246B1A120468F
:1025900003F02AFE641D00BF00BF28780028B4D1D4
:1025A000222004F8010B002004F8010B304654E708
:1025B00070B504460D4629462069FFF700FF70BD3F
:1025C00000E0401C20B1017811B101782029F8DD2C
:1025D00070472DE9F04706460C4620787B2804D04A
:1025E0009E4804600020BDE8F0870620F060601C73
:1025F000FFF7E6FF044620787D2801D1601CF2E752
:10260000FFF74DFB0546B060B06808B90020EAE767
:102610002046FFF7D5FF804641462846FFF7EFFDED
:102620000746FFF7CDFF04460CB90020DBE7286919
:1026300028620020286120783A2803D08748046067
:102640000020D0E7601CFFF7BBFF804641462846CC
:1026500000F099F80746FFF7B3FF04460CB90020D5
:10266000C1E731E0FFF71BFB071E00D1BBE72F607E
:102670007D603D46601CFFF7A3FF81464946284622
:10268000FFF7BDFD8046FFF79BFF04460CB9002015
:10269000A9E7286928620020286120783A2803D019
:1026A0006E48046000209EE7601CFFF789FF8146AA
:1026B0004946284600F067F88046FFF781FF044648
:1026C0000CB900208FE700BF20782C28CAD02078D2
:1026D0007D2801D1601C86E760480460002082E705
:1026E0002DE9F04705460C4620785B2804D05B486E
:1026F00004600020BDE8F0870520E860601CFFF75B
:102700005FFF044620785D2801D1601CF2E7FFF7E7
:10271000C6FA0646A860A86808B90020EAE720467D
:10272000FFF74EFF80464146304600F02CF8074642
:10273000FFF746FF04460CB90020DBE717E0FFF780
:10274000AEFA071E00D1D5E737607E603E46601CBA
:10275000FFF736FF81464946304600F014F88046C0
:10276000FFF72EFF04460CB90020C3E700BF207816
:102770002C28E4D020785D2801D1601CBAE73748C6
:1027800004600020B6E770B505460C460CB9002081
:1027900070BD042232A1204603F078F918B9022056
:1027A000E860201DF4E705222FA1204603F06EF912
:1027B00018B90020E860601DEAE704222CA1204639
:1027C00003F064F920B90120E8606861201DDFE7AB
:1027D0002078222804D121462846FFF710FDD7E7AC
:1027E00020782D2805D02078302807DB207839285C
:1027F00004DC21462846FFF788FAC9E720785B28E1
:1028000004D121462846FFF76BFFC1E720787B28DB
:1028100004D121462846FFF7DCFEB9E70F480460E3
:102820000020B5E72DE9F04780460D461646002406
:10283000FFF735FA0746002008490860E7B9BDE808
:10284000F08700006000002022220000225C080CBB
:102850000A0D090075253034780000005C00002066
:102860006E756C6C0000000066616C7365000000A2
:1028700074727565000000004046FFF7A1FE8146B6
:1028800049463846FFF77FFF04462CB93846FFF724
:1028900013FA0020BDE8F08766B12046FFF790FEEE
:1028A0000446207830B13846FFF706FAFE48046047
:1028B0000020EFE705B12C603846EBE710B5044681
:1028C000002211462046FFF7ADFF10BD2DE9FF4F56
:1028D00089B0884616461F4600200890079006904B
:1028E0004FF0070A00250998D0F8089000200290C0
:1028F0000190009004E00298401C0290D9F80090EA
:10290000B9F1000FF7D10298002835D157B116B1AF
:1029100008F1040000E0032001463846FFF7DBFA27
:10292000069009E016B108F1040100E00321084611
:10293000DE49096888470690069818B900200DB04E
:10294000BDE8F08F069C7B2004F8010B66B10A20DD
:1029500004F8010B002503E0092004F8010B6D1CAD
:10296000A8F10100A842F7DC7D2004F8010B00204B
:1029700004F8010B0698E2E7002F77D0BD680EB18E
:10298000022000E0012082460AF101013846FFF7EB
:10299000A2FA04460CB90020D1E77B2004F8010B11
:1029A00016B10A2004F8010B00202070B8685044CA
:1029B000B8600998D0F8089008F1010868E0B6B14D
:1029C00041463846FFF787FA04460CB90020B6E7BF
:1029D0000020039005E0092004F8010B0398401C37
:1029E000039003984045F6DBB8684044B860394628
:1029F000D9F82000FFF7E3FC3846FFF7A0FAB860EB
:102A00000EB1022000E00120824651463846FFF711
:102A100062FA04460CB9002091E73A2004F8010B51
:102A200016B1092004F8010BB8685044B8603B4661
:102A300032464146484600F078FA3846FFF77FFABA
:102A4000B8600EB1012000E00020D9F8001009B1F3
:102A5000012100E0002100EB010A0AF101013846E2
:102A6000FFF739FA044614B9002068E734E0D9F8D2
:102A7000000010B12C2004F8010B16B10A2004F854
:102A8000010B00202070B8685044B860D9F800905D
:102A9000B9F1000F93D116B108F1010000E0022056
:102AA00001463846FFF717FA04460CB9002046E7FE
:102AB0004EB1002503E0092004F8010B6D1CA8F1BC
:102AC0000100A842F7DC7D2004F8010B00202070F3
:102AD00038682844069005E102998800734909681E
:102AE00088470890089808B9002028E702998800CC
:102AF0006E49096888470790079828B96C49089873
:102B00000968884700201AE702988100089802F0B7
:102B100086FF02988100079802F081FF0998D0F89B
:102B2000089008F1010806B1C2442EE00021D9F84E
:102B30002000FFF744FC0490079941F8250000238A
:102B400032464146484600F0F0F929466D1C059092
:102B5000089A42F82100049898B1059888B1059820
:102B600002F084FF8346049802F080FF0BEB000123
:102B7000891C16B108F1020000E0002008448244DC
:102B800001E001200190D9F80090B9F1000FCDD1FA
:102B9000019820B95046454909688847069006982B
:102BA00008B901200190019818B3002514E0079896
:102BB00050F8250028B1079951F825003C490968CB
:102BC0008847089850F8250028B1089951F8250041
:102BD0003749096888476D1C02988542E7DB34490C
:102BE000079809688847324908980968884700208B
:102BF000A5E67B21069801700698441C16B10A20B0
:102C000004F8010B00202070002548E05EB1002090
:102C1000039005E0092004F8010B0398401C039081
:102C200003984045F6DB079951F8250002F01EFF96
:102C30000090079850F825102046009A02F0D6FE22
:102C4000009804443A2004F8010B16B1092004F856
:102C5000010B089850F82510204602F00EFF089945
:102C600051F8250002F002FF04440298401EA842D9
:102C700002D02C2004F8010B16B10A2004F8010B35
:102C800000202070079951F82500094909688847F4
:102C9000089951F825000649096888476D1C029873
:102CA0008542B3DB024905E05C00002060000020A3
:102CB00064000020079809688847F7490898096860
:102CC00088474EB1002503E0092004F8010B6D1C74
:102CD000A8F10100A842F7DC7D2004F8010B0020D8
:102CE00004F8010B06982AE62DE9FF4F85B09246BD
:102CF0001E464FF0000B052003900598D0F8088081
:102D0000D946002500200290019003E009F1010955
:102D1000D8F80080B8F1000FF8D1B9F1000F16D142
:102D20002EB103213046FFF7D6F8834604E0032096
:102D3000DA49096888478346BBF1000F03D0D8A160
:102D4000584602F09AFE584609B0BDE8F08F002EB2
:102D500057D0B56801213046FFF7BDF804460CB9DD
:102D60000020F1E75B202070B068401CB06005983F
:102D7000D0F808802EE0334652460699491C40465A
:102D800000F0D3F83046FFF7DAF8B060D8F800006A
:102D9000F0B1BAF1000F01D0022000E00120039051
:102DA0000399491C3046FFF796F804460CB90020F9
:102DB000CAE72C2004F8010BBAF1000F02D0202042
:102DC00004F8010B00202070B16803980844B0603B
:102DD000D8F80080B8F1000F02D002980028CAD0BD
:102DE00002213046FFF777F804460CB90020ABE724
:102DF0005D2004F8010B00202070306800EB050B0B
:102E000091E04FEA8900A5490968884707460FB94C
:102E1000002099E74FEA8901384602F000FE059844
:102E2000D0F8088021E0002352460699491C40460C
:102E300000F07BF8049029466D1C049847F82100A7
:102E4000049870B1049802F011FE801CBAF1000FD2
:102E500001D0012100E000210144039808440390BF
:102E600001E001200290D8F80080B8F1000F02D0F4
:102E700002980028D7D0029820B988490398096899
:102E800088478346BBF1000F01D1012002900298D0
:102E900090B1002508E057F8250020B157F825002B
:102EA0007D49096888476D1C4D45F4DB38467A49F1
:102EB00009688847002047E75B208BF800000BF18A
:102EC000010400202070002521E057F8250002F0C1
:102ED000CDFD019057F825102046019A02F086FD9D
:102EE00001980444A9F10100A8420AD02C2004F85A
:102EF000010BBAF1000F02D0202004F8010B0020D2
:102F0000207057F825006449096888476D1C4D45B5
:102F1000DBDB38466049096888475D2004F8010B0F
:102F2000002004F8010B58460EE72DE9F041044655
:102F30000F4690461D46002614B90020BDE8F081DA
:102F4000002D49D0207B072845D2DFE800F0101C77
:102F500004282E343C0005212846FEF7BCFF064617
:102F600026B1AFF20471304602F087FD33E006214E
:102F70002846FEF7B0FF064626B1AFF21471304680
:102F800002F07BFD27E005212846FEF7A4FF064658
:102F900026B1AFF22471304602F06FFD1BE02946E6
:102FA0002046FEF7DCFF064615E029462046FFF7DF
:102FB000FFFA06460FE02B46424639462046FFF709
:102FC00093FE064607E02B46424639462046FFF769
:102FD0007DFC064600BF37E0207B072833D2DFE8C0
:102FE00000F00A1004161C222A00AFF28C70FEF7C3
:102FF0002AFE064627E0AFF29070FEF724FE064652
:1030000021E0AFF29470FEF71EFE06461BE00021A1
:103010002046FEF7A4FF064615E000212046FFF7F4
:10302000C7FA06460FE00023424639462046FFF71E
:103030005BFE064607E00023424639462046FFF77E
:1030400045FC064600BF00BF304677E710B5044692
:103050000023012219462046FFF767FF10BD10B577
:10306000044600231A4619462046FFF75EFF10BDAE
:10307000FEB505460C4616462046084909688847AD
:1030800000900194002002906B46324600212846B1
:10309000FFF74BFFFEBD0000640000206000002031
:1030A0005B5D000001468A68002001E0401C126858
:1030B000002AFBD170470246906801E0491E006873
:1030C00008B10029FADC704770B505460E46AC68B9
:1030D00000E024682CB13146206AFEF78EFD0028FE
:1030E000F7D1204670BD01604860704770B5054655
:1030F000FEF7D5FD04460CB9002070BD28222946F4
:10310000204602F073FC00202062E06840F48070EA
:10311000E0600020606020602046EEE770B5054664
:103120000E46AC6806B970BD0CB9AE6009E000E0AF
:10313000246814B120680028FAD131462046FFF7F0
:10314000D2FF00BFEFE770B506460D46144604B93E
:1031500070BD206A18B1FE49206A09688847284670
:10316000FEF771FD206221463046FFF7D7FF00BF12
:10317000EEE770B506460D46144604B970BDA08949
:1031800000F4007028B9206A18B1F149206A096872
:1031900088472562E06840F40070E06021463046D0
:1031A000FFF7BCFF00BFE9E770B505460C462046B7
:1031B000FFF79CFF064631462846FFF7AFFF70BD7C
:1031C0002DE9F04105460E4614462046FFF78EFFD6
:1031D00007463A4631462846FFF7B5FFBDE8F0817D
:1031E00010B502460B46916801E009685B1E09B103
:1031F000002BFADC09B9002010BD486810B1D1E9F4
:1032000000042060086810B1D1E900406060906857
:10321000884201D108689060002008604860084634
:10322000EAE770B504460D4629462046FFF7D8FF69
:103230000646FEF741FD70BD2DE9F04105460F46FB
:103240000026AC6801E0761C24682CB13946206A5F
:10325000FEF7D3FC0028F6D12CB131462846FFF703
:10326000BFFFBDE8F0810020FBE770B504460D46C6
:1032700029462046FFF7E0FF0646FEF71DFD70BD1C
:103280002DE9F04106460F461446B56801E02D6869
:103290007F1E0DB1002FFADC2DB921463046FFF715
:1032A0003DFFBDE8F0812560686860606C60B068D3
:1032B000A84201D1B46001E06068046000BFF0E79B
:1032C0002DE9F04106460F461446B56801E02D6829
:1032D0007F1E0DB1002FFADC0DB9BDE8F081286822
:1032E000206068686060206808B120684460B06849
:1032F000A84201D1B46001E0606804600020686009
:1033000028602846FEF7D8FC00BFE6E72DE9F0412B
:1033100005460E4617464FF00008AC6802E008F17B
:10332000010824682CB13146206AFEF766FC0028AB
:10333000F5D144B13046FEF786FC38623A46414644
:103340002846FFF7BDFFBDE8F08110B5FEF7A7FCEA
:1033500004460CB10220E060204610BD10B5FEF717
:103360009EFC04460CB10120E060204610BD10B563
:10337000FEF795FC04460CB10020E060204610BD2D
:1033800070B50546FEF78BFC044624B10DB1012053
:1033900000E00020E060204670BD70B505460E4696
:1033A000FEF77DFC044644B10320E060C4E9065604
:1033B0002846314602F0A3FC6061204670BD70B51E
:1033C0000546FEF76CFC04462CB10420E06028465C
:1033D000FEF739FC2061204670BD10B5FEF75FFC9A
:1033E00004460CB10520E060204610BD10B5FEF784
:1033F00056FC04460CB10620E060204610BD2DE9C5
:10340000F05F81468A460025AB46FFF7E6FF064699
:10341000002410E059F8240002F060FC0746FFF792
:10342000BCFF05460CB9B56003E029465846FFF7D6
:103430005AFEAB46641C0EB15445EBDB3046BDE88A
:10344000F09F2DE9F05F81468A460025AB46FFF7E5
:10345000C4FF0646002410E059F8240002F06EFC78
:103460000746FFF79AFF05460CB9B56003E0294609
:103470005846FFF738FEAB46641C0EB15445EBDBF3
:103480003046BDE8F09F2DE9F04707468846002505
:10349000A946FFF7A2FF0646002410E007EBC40090
:1034A000D0E900211046FFF778FF05460CB9B5605A
:1034B00003E029464846FFF716FEA946641C0EB1F4
:1034C0004445EBDB3046BDE8F0872DE9F047074681
:1034D00088460025A946FFF780FF064600240DE038
:1034E00057F82400FFF76BFF05460CB9B56003E001
:1034F00029464846FFF7F7FDA946641C0EB144452E
:10350000EEDB3046BDE8F0872DE9F04705468946F9
:103510004FF0000815B90020BDE8F087FEF7BFFBAB
:1035200004460CB90020F7E7E86820F48070E060FA
:1035300068696061D5E90601C4E90601286968B1D6
:103540002869FEF780FB2061206938B9204601E038
:1035500064000020FEF7B0FB0020DDE7286A50B1D0
:10356000286AFEF770FB2062206A20B92046FEF729
:10357000A3FB0020D0E7B9F1000F01D12046CBE733
:10358000AF6816E001213846FFF7BEFF064626B9B0
:103590002046FEF791FB0020BEE7B8F1000F05D0F2
:1035A000C8F80060C6F80480B04601E0A660B046E6
:1035B0003F68002FE6D12046AEE7014655E002788D
:1035C000202A01D1401C50E00278092A01D1401C78
:1035D0004BE002780D2A01D1401C46E002780A2A0D
:1035E00001D1401C41E002782F2A0BD142782F2ACA
:1035F00008D100E0401C0278002A36D002780A2A5E
:1036000033D0F7E702782F2A0ED142782A2A0BD13D
:1036100000E0401C02782AB102782A2AF9D14278C7
:103620002F2AF6D1801C20E00278222A19D110F826
:10363000012B01F8012B0AE002785C2A03D110F873
:10364000012B01F8012B10F8012B01F8012B027856
:1036500012B10278222AEFD110F8012B01F8012BC8
:1036600003E010F8012B01F8012B0278002AA6D103
:103670000A70704710B54FF40051F94800F09DFDF5
:103680004FF40041F64800F098FD4FF40041F44833
:1036900000F095FD4FF40051F14800F090FD10BD91
:1036A00010B54FF40051EE4800F087FD4FF4004193
:1036B000EB4800F084FD4FF40041E94800F07DFD47
:1036C00010BD10B54FF40051E54800F076FD4FF401
:1036D0000051E34800F073FD10BD2DE9F0410546AF
:1036E0002C464FF40051DE4800F069FD00261CE036
:1036F000274607F08007802F04D13902D84800F010
:103700005CFD04E04FF40041D54800F058FD600630
:10371000040E4FF40051D24800F04FFD4FF4005119
:10372000CF4800F04CFD701CC6B2082EE0DBBDE8AF
:10373000F08110B50446FFF79DFF7820FFF7CDFF1D
:10374000FFF7BFFF0020FFF7C8FFFFF7BAFF2046D3
:10375000FFF7C3FFFFF7B5FFFFF7A2FF10BD10B5DE
:103760000446FFF787FF7820FFF7B7FFFFF7A9FFB1
:103770004020FFF7B2FFFFF7A4FF2046FFF7ADFFA1
:10378000FFF79FFFFFF78CFF10BD70B504460D4695
:103790001DB1E0B2FFF7E3FF02E0E0B2FFF7C9FFBF
:1037A00070BD70B50646002418E004F1B000002199
:1037B000FFF7EBFF00210846FFF7E7FF002110208D
:1037C000FFF7E3FF002505E001213046FFF7DDFFAD
:1037D000681CC5B2802DF7DB601CC4B2082CE4DB8A
:1037E00070BD06E041F6650100E0491E0029FCD1EC
:1037F000401E0028F6D17047014605E0002001E098
:10380000421CD0B27B28FBDB0A1EA1F10101F5D1DD
:10381000704770B504460D4605F1B0000021FFF772
:10382000B4FF102141EA14100021FFF7AEFF04F0AD
:103830000F000021FFF7A9FF70BD10B500218D20FA
:10384000FFF7A3FF00211420FFF79FFF0021AF2007
:10385000FFF79BFF10BD10B500218D20FFF795FFEE
:1038600000211020FFF791FF0021AE20FFF78DFF10
:1038700010BD70B5002418E004F1B0000021FFF77E
:1038800084FF00210846FFF780FF00211020FFF78A
:103890007CFF002505E001210020FFF776FF681C72
:1038A000C5B2802DF7DB601CC4B2082CE4DB70BD10
:1038B00070B5002418E004F1B0000021FFF765FFA7
:1038C00000210846FFF761FF00211020FFF75DFF90
:1038D000002505E001210846FFF757FF681CC5B227
:1038E000802DF7DB601CC4B2082CE4DB70BD2DE931
:1038F000F04707460E469046994600250024A8F159
:103900002000C5B27F2F02DD0027B01CC6B2B9F17E
:10391000100F24D131463846FFF77BFF002408E022
:1039200004EB05114F4A505C0121FFF72EFF601C8C
:10393000C4B2082CF4DB701CC1B23846FFF769FF33
:10394000002409E004EB05110831464A505C0121CE
:10395000FFF71BFF601CC4B2082CF3DB12E03146FA
:103960003846FFF756FF00240AE005EB45013E4AC2
:1039700002EB4101085D0121FFF707FF601CC4B2A3
:10398000062CF2DBBDE8F08710B50246012000E00E
:1039900050430B1EA1F10104E1B2F9D110BD2DE994
:1039A000FF5F074691461E460E9D4FF0000A002419
:1039B00035E0301B401EC1B20A20FFF7E5FFB9FB1E
:1039C000F0F00A21B0FBF1F201FB1208BAF1000F8E
:1039D00014D1701EA04211DDB8F1000F0CD1AB461E
:1039E00005EBDB71491001FB0471C8B22B462022A4
:1039F0000199FFF77CFF10E04FF0010AAB4605EBA1
:103A0000DB71491001FB0471C8B208F13001CAB280
:103A10002B460199FFF76BFF00BF601CC4B2B44294
:103A2000C7DBBDE8FF9F2DE9F04104460F46154670
:103A3000984600260FE0AA5D434639462046FFF728
:103A400056FF04F10800C4B2782C02DD0024B81C33
:103A5000C7B2701CC6B2A85D0028ECD1BDE8F081E9
:103A6000000C01406F790008477700082DE9F0410C
:103A700080460E461546002731464046FFF7C9FEF0
:103A800000240AE07E4A02EB8511085D0121FFF760
:103A90007CFE781CC7B2601CC4B2102CF2DB701C18
:103AA000C1B24046FFF7B5FE00240CE06900491C96
:103AB000734A02EB4111085D0121FFF766FE781C95
:103AC000C7B2601CC4B2102CF0DBBDE8F0812DE958
:103AD000F05F06460F4690461C46DDF828A04FF0E2
:103AE000000BE11704EB5171C910A4EBC10131B90E
:103AF0002046E11704EB5171C1F3C70506E02046EB
:103B0000E11704EB5171C910491CCDB23D4615E0D7
:103B100029463046FFF77DFEB1460BE059460BF1D2
:103B2000010B1AF801000121FFF72FFE09F1010036
:103B300000F0FF09C145F1DB681CC5B2A542E7DB17
:103B4000BDE8F09F08B50121202000F045FD0420CC
:103B5000ADF8000010208DF8030003208DF802005E
:103B60006946484800F07CFA0421464800F025FBED
:103B70000121082000F030FD4FF43040ADF8000086
:103B800010208DF8030003208DF8020069463E489E
:103B900000F066FA4FF430413B4800F00EFBC820BD
:103BA00000F0B1F80021AE20FFF7EFFD002108463C
:103BB000FFF7EBFD00211020FFF7E7FD002140207B
:103BC000FFF7E3FD0021B020FFF7DFFD002181209A
:103BD000FFF7DBFD0021FF20FFF7D7FD0021A1202B
:103BE000FFF7D3FD0021A620FFF7CFFD0021A8207D
:103BF000FFF7CBFD00213F20FFF7C7FD0021C820C4
:103C0000FFF7C3FD0021D320FFF7BFFD00210846C9
:103C1000FFF7BBFD0021D520FFF7B7FD0021802075
:103C2000FFF7B3FD0021D820FFF7AFFD00210520ED
:103C3000FFF7ABFD0021D920FFF7A7FD0021F12000
:103C4000FFF7A3FD0021DA20FFF79FFD00211220DE
:103C5000FFF79BFD0021DB20FFF797FD00213020BF
:103C6000FFF793FD00218D20FFF78FFD0021142029
:103C7000FFF78BFD0021AF20FFF787FD08BD000097
:103C80006800002000140140000C014010B56FF0E6
:103C9000040000F066F92E4800682E49B0FBF1F0F0
:103CA0002D4908700846007800EB4001C1EBC010B8
:103CB0004FF6FF7101EAC0002849088010BD014697
:103CC000254A12784A434FF0E0235A6100229A6154
:103CD0001A46126942F001021A6100BF4FF0E02259
:103CE000106900F001021AB100F48032002AF5D008
:103CF0004FF0E022126922F001024FF0E0231A6136
:103D000000229A6170470146144A12884A434FF0D4
:103D1000E0235A6100229A611A46126942F00102B8
:103D20001A6100BF4FF0E022106900F001021AB1E1
:103D300000F48032002AF5D04FF0E022126922F020
:103D400001024FF0E0231A6100229A6170470000DF
:103D50001000002000127A00E8050020EA0500208B
:103D6000014600BF704700BF494A128802F0400276
:103D7000002AF9D0C2B2464B1B1D1A80704710B5FD
:103D800086B00446012144F2040000F025FC4FF403
:103D90000070ADF8140003208DF8160018208DF87F
:103DA000170005A93B4800F05BF94FF48060ADF8BF
:103DB000140004208DF8170005A9364800F050F9CA
:103DC00025208DF8000003208DF801008DF80200F9
:103DD00001208DF80300684600F079F80194002076
:103DE000ADF80800ADF80A00ADF80C00ADF8100011
:103DF0000C20ADF80E0001A9254800F094FC01222A
:103E000040F22551224800F026FD0121204800F013
:103E100016FD06B010BD10B540F225511C4800F04B
:103E2000FFFD10B31A4800F07BFDC4B21A480088A9
:103E300000F40040C8B91848008800F4804060B120
:103E40000A2C03D000201449088020E01248008882
:103E500040F400401049088019E00D2C06D10E48AE
:103E6000008840F480400C49088010E00A4800882F
:103E7000C0F30D0009490C5407480088401C06494E
:103E8000088008460088C72801DD0020088010BD92
:103E90000038014000080140F005002040B6002035
:103EA0000648804706480047FEE7FEE7FEE7FEE7D4
:103EB000FEE7FEE7FEE7FEE7FEE7FEE7DF050008B8
:103EC0003101000831490143314A1160704770B532
:103ED000002100230F22C47804B32D4C246804F47D
:103EE000E064C4F5E064210AC1F10403CA404478E7
:103EF00004FA03F18478144021430901254C067823
:103F0000A155047804F01F050124AC4005786D111B
:103F1000AD0005F1E025C5F8004109E0047804F0A2
:103F20001F050124AC401C4D0678761145F826404B
:103F300070BD1A4A0A400243154B1B1F1A60704796
:103F400039B1134A121D12680243114B1B1D1A602E
:103F500006E00F4A121D126882430D4B1B1D1A60AA
:103F60007047042808D14FF0E021096941F00401AD
:103F70004FF0E022116107E04FF0E021096921F0E4
:103F800004014FF0E0221161704700000000FA05C3
:103F90000CED00E000E400E080E100E080FFFF1FA6
:103FA00010B50446CC48844208D10121042000F019
:103FB0002DFB0021042000F029FB46E0C748844285
:103FC00008D10121082000F021FB0021082000F089
:103FD0001DFB3AE0C248844208D10121102000F0C4
:103FE00015FB0021102000F011FB2EE0BD4884429B
:103FF00008D10121202000F009FB0021202000F041
:1040000005FB22E0B848844208D10121402000F09D
:10401000FDFA0021402000F0F9FA16E0B34884428E
:1040200008D10121802000F0F1FA0021802000F069
:10403000EDFA0AE0AE48844207D10121801500F074
:10404000E5FA0021A01500F0E1FA10BD10B501213C
:10405000084600F0DBFA0021012000F0D7FA10BD7D
:104060002DE9F0410246002500260020002300240F
:10407000002791F803C00CF00F0591F803C00CF075
:10408000100CBCF1000F03D091F802C04CEA0505FA
:1040900091F800C0BCF1000F31D0146800202BE073
:1040A0004FF0010C0CFA00F3B1F800C00CEA030663
:1040B0009E4220D183004FF00F0C0CFA03F7BC4353
:1040C00005FA03FC4CEA040491F803C0BCF1280F84
:1040D00006D14FF0010C0CFA00FCC2F814C00AE043
:1040E00091F803C0BCF1480F05D14FF0010C0CFA58
:1040F00000FCC2F810C0401C0828D1D31460B1F8ED
:1041000000C0BCF1FF0F34DD546800202EE000F148
:10411000080C4FF0010808FA0CF3B1F800C00CEAE3
:1041200003069E4221D183004FF00F0C0CFA03F7D7
:10413000BC4305FA03FC4CEA040491F803C0BCF14B
:10414000280F05D100F1080C08FA0CF8C2F8148009
:1041500091F803C0BCF1480F07D100F1080C4FF0F3
:10416000010808FA0CF8C2F81080401C0828CED3C9
:104170005460BDE8F0814FF6FF710180022181702B
:104180000421C17070470246002093680B400BB1B8
:10419000012000E0002070470146886880B2704727
:1041A00002460020D3680B400BB1012000E0002044
:1041B00070470146C86880B270470161704741612D
:1041C00070470AB1016100E041617047C16070470A
:1041D0004FF480320A43826181618261826982691F
:1041E000704702460020434B18684FF68073184012
:1041F00040EA021008433F4B186070473E49C861CF
:104200007047F0B50A46002300240021002500F085
:104210000046B6F1004F02D1364EF16901E0354E4D
:104220007168C0F3034583B200F44016B6F5401F31
:1042300008D121F070612F4E766826F070662D4F00
:104240007E6012E000F48016B6F5801F06D10326CA
:1042500006FA05F4A14341F0706106E0460D36010F
:1042600003FA06F6B14341F0706122B1460D360102
:1042700003FA06F6314300F00046B6F1004F02D1D2
:104280001C4EF16101E01B4E7160F0BD30B50022A3
:104290008B071C0F0F2303FA04F2164B08338C1004
:1042A00053F824309343134C08348D1044F82530D0
:1042B00023468C1053F824308C07240F00FA04F4A2
:1042C00023430C4C08348D1044F8253030BD0A4986
:1042D000DC3108607047000000080140000C01401C
:1042E000001001400014014000180140001C014072
:1042F000002001400000014000002042DF4800682B
:1043000040F00100DD49086008464068DC4908408B
:10431000DA49486008460068DA490840D749086029
:104320000846006820F4802008600846406820F4B1
:10433000FE0048604FF41F0088607047CF4909684D
:1043400021F48031CD4A11601146096821F48021A1
:104350001160B0F5803F03D0B0F5802F0ED106E09C
:10436000C649096841F48031C44A116007E0C34975
:10437000096841F4A021C14A116000E000BF00BFFC
:10438000704710B501460022002300204A11012A7F
:1043900002D1BA4C236806E0022A02D1B74C236A44
:1043A00001E0B64C636A01F01F02012494401C40F6
:1043B0000CB1012000E0002010BD38B500200090B5
:1043C0000024002500BF3120FFF7DBFF05460098E1
:1043D000401C00900098B0F5A06F01D0002DF2D0E5
:1043E0003120FFF7CEFF08B1012400E00024204671
:1043F00038BD01460020A14A106820F0F80040EACC
:10440000C10010607047A049086070470246002054
:104410009A4B586820F47C1042EA01031843974BEA
:104420005860704798490866704701460020934AD3
:10443000506820F003000843506070478F48406880
:1044400000F00C007047014600208C4A506820F0B4
:10445000F00008435060704701460020874A5068CA
:1044600020F4E06008435060704701460020834A12
:10447000506820F4605040EAC1005060704729B194
:104480007E4A527A02437D4B5A7204E07B4A527A4A
:1044900082437A4B5A7270477B49D8310860704723
:1044A00001460020754A506820F44040084350609F
:1044B00070470021714A20321170704A82F8201032
:1044C000012802D004280AD104E001216B4A2032DD
:1044D000117005E00521694A2032117000E000BF2B
:1044E00000BF70476949086070476449096A014321
:1044F000624A11627047654944390860704730B5B7
:1045000000210022002400235C4D6D6805F00C01A1
:1045100021B1042905D0082923D105E05C4D0560AF
:1045200022E05B4D05601FE0544D6D6805F470128C
:10453000524D6D6805F48034022505EB92421CB99A
:10454000544D554305600BE04C4D6D6805F4003546
:104550001DB1504D5543056002E04D4D554305607A
:1045600002E04B4D056000BF00BF444D6D6805F093
:10457000F0010909484D6B5C0568DD4045603F4D21
:104580006D6805F4E061090A434D6B5C4568DD40E8
:1045900085603A4D6D6805F46051C90A3E4D6B5C0B
:1045A0004568DD40C560354D6D6805F44041890BB7
:1045B0003A4D6B5CC568B5FBF3F5056130BD29B1BB
:1045C0002E4A526902432D4B5A6104E02B4A52692C
:1045D00082432A4B5A61704729B1284A92690243A3
:1045E000264B9A6104E0254A92698243234B9A61E3
:1045F000704729B1214AD2690243204BDA6104E0B5
:104600001E4AD26982431D4BDA61704729B11B4AA9
:10461000D2680243194BDA6004E0184AD268824338
:10462000164BDA60704729B1144A12690243134BE2
:104630001A6104E0114A12698243104B1A617047F3
:1046400012494039086070470F49C86470470B49E8
:10465000C87170470948406A40F080700749486255
:10466000704701460020054A92680A400AB10120BD
:1046700000E0002070470149887270470010024036
:104680000000FFF8FFFFF6FE0000424280044242B5
:1046900000127A0000093D00F20500200206002009
:1046A00010B50446FB48844209D101218803FFF775
:1046B000ADFF00214FF48040FFF7A8FF32E0F6483D
:1046C000844209D101214804FFF7ADFF00214FF4D6
:1046D0000030FFF7A8FF25E0F048844209D101210E
:1046E0008804FFF7A0FF00214FF48020FFF79BFF15
:1046F00018E0EB48844209D10121C804FFF793FF79
:1047000000214FF40020FFF78EFF0BE0E5488442C4
:1047100008D101210805FFF786FF00214FF4801022
:10472000FFF781FF10BD2DE9F04786B005460E4624
:104730000024A24600BFA1460027B08900B100BFF7
:104740002F462C8A4CF6FF700440F08804432C82DC
:10475000AC894EF6F3100440B08831890843718962
:1047600008430443AC81AC8A4FF6FF400440B08953
:104770000443AC8201A8FFF7C2FEC648874202D1BB
:10478000DDF810A001E0DDF80CA0A88900F40040DD
:1047900040B10AEBCA0000EB0A1031684900B0FBD7
:1047A000F1F807E00AEBCA0000EB0A103168890053
:1047B000B0FBF1F86420B8FBF0F00401200964219B
:1047C00001FB1089A88900F4004040B1322000EBC1
:1047D000C900B0FBF1F000F00700044308E032200C
:1047E00000EB09106421B0FBF1F000F00F0004436E
:1047F0002C8106B0BDE8F0874FF41651016000210E
:104800008180C18001810C2141810021818170471B
:1048100010B502460020108A4FF2FF0318400B88A3
:104820004C8823438C882343CC882343184310822D
:1048300010BD0021018041808180C180704721B17D
:10484000828942F40052828104E082894DF6FF732E
:104850001A4082817047F0B50346002400260025E7
:10486000002040F66A17B94200D100BF1846C1F3D4
:10487000421401F01F06012707FA06F5012C01D1A9
:104880000C3004E0022C01D1103000E014301AB1D9
:1048900007682F43076002E00768AF430760F0BD79
:1048A0001AB1838A0B43838202E0838A8B4383821B
:1048B0007047028A4FF6F0731A400282028A0A4356
:1048C0000282704782894FF2FF731A408281828987
:1048D0000A438281704721B1828942F002028281BB
:1048E00004E082894FF6FD731A4082817047028A84
:1048F0004FF6DF731A400282028A0A43028270472F
:1049000021B1028A42F48042028204E0028A4BF61C
:10491000FF731A4002827047C1F308028280704719
:1049200001468888C0F308007047818941F0010181
:1049300081817047028BD2B20283028B42EA01224C
:1049400002837047028B02F47F420283028B0A4388
:104950000283704721B1828A42F02002828204E001
:10496000828A4FF6DF731A408282704721B1828AB1
:1049700042F01002828204E0828A4FF6EF731A40FE
:104980008282704721B1828A42F00802828204E06A
:10499000828A4FF6F7731A408282704721B182896A
:1049A00042F40042828103E08289C2F30E028281D6
:1049B000704721B1828A42F40062828204E0828AD6
:1049C0004FF2FF731A4082827047828A4FF6FB7360
:1049D0001A408282828A0A438282704721B1828A87
:1049E00042F00202828204E0828A4FF6FD731A408E
:1049F0008282704702460020B1F5007F00D100BFDF
:104A000013880B400BB1012000E00020704701F437
:104A10000072B2F5007F00D100BFCA430280704728
:104A200070B50246002400230025002040F66A16D7
:104A3000B14200D100BFC1F3421501F01F030126AE
:104A400006FA03F3012D02D19689334006E0022DC8
:104A500002D1168A334001E0968A33400C120126B7
:104A600006FA04F41688344013B10CB1012000E0BA
:104A7000002070BD10B50022002340F66A14A14248
:104A800000D100BF0A1201249440A3B2DC43048089
:104A900010BD0000003801400044004000480040C4
:104AA000004C00400050004010B50446FE488442CF
:104AB00008D10121C014FFF7A9FD0021E014FFF780
:104AC000A5FDC4E0B4F1804F08D101210846FFF7ED
:104AD000AAFD00210120FFF7A6FDB8E0F3488442BB
:104AE00008D101210220FFF79EFD00210220FFF7DF
:104AF0009AFDACE0EE48844208D101210420FFF782
:104B000092FD00210420FFF78EFDA0E0E9488442D9
:104B100008D101210820FFF786FD00210820FFF7BA
:104B200082FD94E0E448844208D101211020FFF77F
:104B30007AFD00211020FFF776FD88E0DF488442EF
:104B400008D101212020FFF76EFD00212020FFF772
:104B50006AFD7CE0DA48844208D101214014FFF765
:104B600055FD00216014FFF751FD70E0D5488442E7
:104B700009D10121C804FFF749FD00214FF40020AD
:104B8000FFF744FD63E0D048844209D101210805C4
:104B9000FFF73CFD00214FF48010FFF737FD56E092
:104BA000CA48844209D101214805FFF72FFD0021A1
:104BB0004FF40010FFF72AFD49E0C548844208D1B0
:104BC00001214020FFF72FFD00214020FFF72BFDA2
:104BD0003DE0C048844208D101218020FFF723FD39
:104BE00000218020FFF71FFD31E0BB48844208D13F
:104BF00001218015FFF717FD0021A015FFF713FD18
:104C000025E0B648844209D101210804FFF7FEFCE3
:104C100000214FF48030FFF7F9FC18E0B0488442DF
:104C200009D101214804FFF7F1FC00214FF40030C5
:104C3000FFF7ECFC0BE0AB48844208D1012188046B
:104C4000FFF7E4FC00214FF48020FFF7DFFC10BDEC
:104C500000220288944B98420ED0994B98420BD078
:104C6000B0F1804F08D0914B984205D0904B9842BC
:104C700002D0904B984204D14FF68F731A404B8864
:104C80001A438D4B984207D08C4B984204D04FF674
:104C9000FF431A40CB881A4302808B8883850B8898
:104CA0000385814B98420BD0854B984208D08B4BA3
:104CB000984205D08A4B984202D08A4B984201D143
:104CC0000B7A038601238382704770B5002400228B
:104CD0000023058C4FF6FE7635400584028C8388D0
:104CE000048B4FF68F752C40B51E2C400D882C433D
:104CF000751E2A400D892A434D882A436A4DA842D1
:104D00000BD06F4DA84208D0744DA84205D0744D09
:104D1000A84202D0734DA84213D14FF6F7752A402E
:104D20004D892A434FF6FB752A408D882A434FF65A
:104D3000FF652B404FF6FF552B408D892B43CD89C6
:104D40002B4383800483CD888586028470BD70B533
:104D5000002400220023058C4FF6EF7635400584B1
:104D6000028C8388048B48F6FF752C404FF6FF4574
:104D70002C400D884FF6FF7606EA05252C434FF6AA
:104D8000DF752A400D8906EA05152A434D8806EA93
:104D900005152A43444DA84202D0494DA8421DD1D1
:104DA0004FF67F752A404D894FF6FF7606EA0515C6
:104DB0002A434FF6BF752A408D8806EA05152A4317
:104DC0004FF6FF352B404FF2FF752B408D8906EAD9
:104DD00085052B43CD8906EA85052B438380048313
:104DE000CD880587028470BD70B5002400220023A1
:104DF000058C4FF6FF6635400584028C8388848BD2
:104E00004FF68F752C404FF6FC752C400D882C43C7
:104E10004FF6FF552A400D894FF6FF7606EA052525
:104E20002A434D8806EA05252A431F4DA84202D091
:104E3000234DA8421DD14FF2FF752A404D894FF6F0
:104E4000FF7606EA05252A434FF6FF352A408D886E
:104E500006EA05252A434EF6FF752B404DF6FF75F1
:104E60002B408D8906EA05152B43CD8906EA0515E9
:104E70002B4383808483CD888587028470BD70B581
:104E8000002200230024058C4EF6FF763540058471
:104E9000038C8488828B48F6FF752A404FF6FF45C5
:104EA0002A400D8820E00000002C01400004004052
:104EB00000080040000C00400010004000140040BA
:104EC00000340140004C01400050014000540140BA
:104ED00000180040001C004000200040004001403D
:104EE00000440140004801404FF6FF7606EA0525E0
:104EF0002A434DF6FF752B400D8906EA05352B43F5
:104F00004D8806EA05352B43FA4DA84202D0FA4DEA
:104F1000A84208D14BF6FF752C408D894FF6FF76DD
:104F200006EA85152C4384808283CD88A0F8405002
:104F3000038470BD828B4FF2FF331A408283828BD1
:104F40004FF6FF7303EA01231A4382837047F0B5DB
:104F50000C461546002200210026078C4EF6FF7CE9
:104F600007EA0C070784828B018C4FF6FF7707EA6C
:104F7000043640F6FF473A404FF6FF7707EA052729
:104F80003A434FF6FF7707EA03373A43D94FB8421F
:104F90000ED0D94FB8420BD0B0F1804F08D0D74FC8
:104FA000B84205D0D64FB84202D0D64FB84206D14B
:104FB0004DF6FF77394046F48057394305E047F610
:104FC000FF57394044F48057394382830184F0BD50
:104FD000828B4FF6F3731A408283828B0A4382835B
:104FE0007047F0B50C461546002200210026078CBC
:104FF0004FF6FF6C07EA0C070784828B018C4FF693
:10500000FF7707EA04264FF60C773A404FF6FF7712
:1050100007EA03172F433A43B64FB8420ED0B64FB4
:10502000B8420BD0B0F1804F08D0B44FB84205D091
:10503000B34FB84202D0B34FB84206D14FF6FF5734
:10504000394046F48077394305E04FF2FF57394045
:1050500044F48077394382830184F0BD028B4FF2A0
:10506000FF331A400283028B4FF6FF7303EA0123DA
:105070001A4302837047F0B50C4615460022002102
:105080000026078C4FF6EF7C07EA0C070784028B9B
:10509000018C4FF6FF7707EA041640F6FF473A40C7
:1050A0004FF6FF7707EA03373A434FF6FF7707EAF1
:1050B00005273A438F4FB8420ED08F4FB8420BD0DE
:1050C000B0F1804F08D08D4FB84205D08C4FB84218
:1050D00002D08C4FB84206D14FF6DF77394046F008
:1050E0001007394305E04FF65F77394044F0100769
:1050F000394302830184F0BD028B4FF6F3731A40EB
:105100000283028B0A4302837047F0B50C461546B2
:1051100000220021068C4FF6FE773E400684028B6B
:10512000018C4FF60C7632407E1C06EA03162E43A5
:105130003243704EB0420ED06F4EB0420BD0B0F141
:10514000804F08D06D4EB04205D06D4EB04202D0B7
:105150006C4EB04206D14FF6FD76314044F0010668
:10516000314305E04FF6F576314044F00106314316
:1051700002830184F0BD70B505460C465D4885424A
:105180000ED05D4885420BD0B5F1804F08D05B480A
:10519000854205D05A48854202D05A48854200D1FE
:1051A00000E000BF208850B92389A2886188284682
:1051B000FFF7ABFFE1882846FFF79EFF25E0208838
:1051C00004280AD12389A28861882846FFF753FF63
:1051D000E1882846FFF742FF17E0208808280AD117
:1051E0002389A28861882846FFF7FBFEE1882846CC
:1051F000FFF7EEFE09E02389A28861882846FFF7C1
:10520000A6FEE1882846FFF795FE70BD2DE9F04126
:1052100005460C4600260127608808B9022600E0F2
:105220000026A088012801D1022700E0012720885C
:10523000A0B92389A28861882846FFF766FFE18824
:105240002846FFF759FF23893A4631462846FFF79B
:1052500012FFE1882846FFF701FF13E02389A288A7
:1052600061882846FFF707FFE1882846FFF7F6FE2A
:1052700023893A4631462846FFF747FFE18828460A
:10528000FFF73AFFBDE8F0810A884B881A438B8804
:105290001A43CB881A430B891A434B891A438B89CB
:1052A0001A43A0F8442070474FF6FF718180002117
:1052B0000180C180418001727047002101804180DE
:1052C0008180C180018141818181C181704700213C
:1052D00001804180012181800021C18001817047CE
:1052E0000021018041808180C180018141818181D3
:1052F00070470000002C01400034014000040040D1
:1053000000080040000C004021B1028842F0010278
:10531000028004E002884FF6FE731A400280704754
:1053200031B1B0F8442042F40042A0F8442005E036
:10533000B0F84420C2F30E02A0F8442070471AB11E
:1053400083890B43838102E083898B438381704788
:105350008182704741EA0203A0F8483070471AB1D1
:1053600083890B43838102E083898B438381704768
:1053700001894FF6F8721140018170470A460021F9
:1053800001894FF68F73194011430181704730B581
:1053900004460D4629462046FFF7F0FF208940F0DD
:1053A0000700208130BD2DE9F04104460D46164628
:1053B0001F46602D06D13B46012231462046FFF7AD
:1053C0005AFE05E03B46012231462046FFF79DFE8E
:1053D00029462046FFF7D2FF208940F007002081B0
:1053E000BDE8F08130B50C4600210189C9B24FF605
:1053F000FF7505EA0325154325432943018130BD87
:105400002DE9F04105460E461746984600244346CE
:105410003A4631462846FFF7E5FF2C894FF6F870EB
:10542000044044F007044FF68F70044044F07004C9
:105430002C81BDE8F081F0B504460D4616461F46A6
:105440003B46324629462046FFF7CCFF208940F4F0
:1054500080402081F0BD0185828270470A4600218C
:1054600001884FF68F731940114301807047F0B5E2
:105470000C4615461E460021002200230189028B9E
:10548000038C4FF6F877394021434FF6FC473A40FA
:1054900040F201173A434FF6DD773B404FF6FF7776
:1054A00007EA06172F433B43018102830384F0BDC3
:1054B0000A460021018B4FF68F7319401143018377
:1054C00070470A460021018B48F6FF7319404FF6DA
:1054D000FF7303EA02231943018370470A46002140
:1054E000818B4FF68F7319401143818370470A46B1
:1054F0000021818B48F6FF7319404FF6FF7303EAD2
:10550000022319438183704721B1028842F080024F
:10551000028004E002884FF67F731A4002807047D1
:1055200021B1828842F00402828004E082884FF632
:10553000FB731A408280704721B1828842F00802D2
:10554000828004E082884FF6F7731A4082807047A9
:1055500021B1828842F00102828004E082884FF605
:10556000FE731A40828070470A460021018B4FF675
:10557000F77319401143018370470A460021018BDC
:105580004FF2FF7319404FF6FF7303EA02231943EA
:10559000018370470A460021818B4FF6F77319404B
:1055A0001143818370470A460021818B4FF2FF73BC
:1055B00019404FF6FF7303EA0223194381837047B2
:1055C0000A460021018B4FF6FB73194011430183FA
:1055D00070470A460021018B4FF6FF3319404FF602
:1055E000FF7303EA02231943018370470A4600212F
:1055F000818B4FF6FB7319401143818370470A4634
:105600000021818B4FF6FF3319404FF6FF7303EAF9
:1056100002231943818370470A460021018B4FF60C
:105620007F7319401143018370470A460021018BA3
:10563000C1F30E014FF6FF7303EA022319430183FE
:1056400070470A460021818B4FF67F731940114342
:10565000818370470A460021818BC1F30E014FF60A
:10566000FF7303EA02231943818370470A4600212E
:10567000018C4FF6FD7319401143018470470A46AF
:105680000021018C4FF6F7731940114301847047D4
:105690000A460021018C4FF6DF7319404FF6FF7365
:1056A00003EA02131943018470470A460021018C62
:1056B0004FF67F7319404FF6FF7303EA0213194345
:1056C000018470470A460021018C4FF6FF531940B0
:1056D0004FF6FF7303EA02231943018470470A4619
:1056E0000021018C4FF2FF7319404FF6FF7303EA5C
:1056F00002231943018470470A460021018C4DF6AC
:10570000FF7319404FF6FF7303EA02331943018414
:10571000704730B5002301248C40A3B2048C9C4315
:105720000484048C02FA01F5ADB22C43048430BD2C
:1057300030B5002304248C40A3B2048C9C43048421
:10574000048C02FA01F5ADB22C43048430BD70B56F
:105750000346002000241846183001258D40ACB2C5
:105760001D8CA5431D8409B1082909D100EB6100F6
:10577000056825F0700505600568154305600EE0B5
:105780000D1FC5F34E052844056825F4E045056066
:1057900005684FF6FF7606EA02263543056070BDC0
:1057A00021B1028842F00202028004E002884FF632
:1057B000FD731A400280704721B1028842F0040252
:1057C000028004E002884FF6FB731A4002807047A3
:1057D00021B1828842F08002828004E082884FF604
:1057E0007F731A408280704702884FF6F7731A4021
:1057F000028002880A430280704782884FF68F73C6
:105800001A40828082880A438280704702894FF65C
:10581000F8731A40028102890A43028170470289A3
:105820004FF67F731A40028102890A430281704752
:1058300081847047818570478186704701877047F2
:1058400081877047A0F84010704702884FF6FF43E9
:105850001A40028002880A43028070470146888EFF
:1058600070470146088F70470146888F7047014690
:10587000B1F8400070470146888C70470146088D9A
:10588000704702460020138A0B400BB1012000E054
:1058900000207047CA430282704730B5024600209C
:1058A00000230024158A05EA0103958905EA01040D
:1058B00013B10CB1012000E0002030BDCA430282C8
:1058C00070470000002044490860091D0860091D58
:1058D0000860091D086041483F491431086070475D
:1058E00000213D498279002A3AD00A4612680368AD
:1058F0009A430B461A600A1D126803689A430B1DEF
:105900001A60027911440A6803681A430A60324A2D
:105910000832126803689A432F4B08331A601A1D25
:10592000126803689A432C4B0C331A604279102A90
:105930000ED11A1F126803681A43274B08331A60E6
:105940001A1D126803681A43234B0C331A600DE0CA
:105950002149427911440A6803681A430A6005E044
:10596000027911440A6803689A430A60704700216B
:10597000016001710C21417100218171704716494C
:10598000103109680143144A103211607047014612
:105990000020114A143212680A400AB1012000E0C6
:1059A000002070470C491431086070470146002000
:1059B0000022094B1B6803EA0102074B14331B68E2
:1059C0000B4013B10AB1012000E0002070470249EA
:1059D000143108607047000000040140FFFF0F0011
:1059E000A0F14101192900D82030704740EA010395
:1059F0009B0703D009E008C9121F08C0042AFAD285
:105A000003E011F8013B00F8013B521EF9D2704748
:105A1000D2B201E000F8012B491EFBD270470022F0
:105A2000F6E710B513460A4604461946FFF7F0FF9D
:105A3000204610BD30B505462A460B4612F8010B2C
:105A400013F8014B08B1A042F8D01CB1002802D0D5
:105A50006D1CF1E7284630BDCAB2401E10F8011F88
:105A60008A4202D00029F9D100207047421C10F868
:105A7000011B0029FBD1801A7047034611F8012B46
:105A800000F8012B002AF9D11846704730B50546B9
:105A90000020034600E05B1C934205D2EC5CC85C2E
:105AA000201A01D1002CF6D130BD2DE9FE4F8046E1
:105AB00081EA0300C00F0C46009021F0004123F062
:105AC0000045B8EB0200A94105D240462146904668
:105AD0001C460B46024623F00040104347D0270DDA
